:100000000C942A000C9447000C9447000C94470071
:100010000C9447000C9447000C9447000C94470044
:100020000C9447000C9447000C9447000C94470034
:100030000C9447000C9447000C9447000C94470024
:100040000C9447000C9447000C9447000C94470014
:100050000C94470011241FBECFE5D8E0DEBFCDBF12
:1000600010E0A0E6B0E0E8E2F1E002C005900D92F9
:10007000A236B107D9F710E0A2E6B0E001C01D92A8
:10008000AF36B107E1F70E9484000C9492000C9403
:1000900000008AB188618AB980B5866880BD809188
:1000A000600089B908955D9BFECF8CB95E9BFECF41
:1000B00008951F93CF93DF93EC0110E003C00E94DB
:1000C00053001F5FFE01E10FF11D80818823B9F706
:1000D000DF91CF911F9108955F9BFECF8CB1089562
:1000E00090E05F9BFECF8CB1E92FF0E0EE59FF4F1F
:1000F00080839F5FE92FF0E0EF59FF4F80818823D5
:1001000081F782E690E008958AB188618AB980B566
:10011000866880BD8091600089B90E9470000E944D
:080120005900FBCFF894FFCF5A
:020128003300A2
:00000001FF
